{
  "contractName": "CrowdFunding",
  "abi": [
    {
      "inputs": [
        {
          "internalType": "uint256",
          "name": "_target",
          "type": "uint256"
        },
        {
          "internalType": "uint256",
          "name": "_deadline",
          "type": "uint256"
        }
      ],
      "stateMutability": "nonpayable",
      "type": "constructor"
    },
    {
      "inputs": [],
      "name": "MinimumContribution",
      "outputs": [
        {
          "internalType": "uint256",
          "name": "",
          "type": "uint256"
        }
      ],
      "stateMutability": "view",
      "type": "function",
      "constant": true
    },
    {
      "inputs": [
        {
          "internalType": "address",
          "name": "",
          "type": "address"
        }
      ],
      "name": "contributors",
      "outputs": [
        {
          "internalType": "uint256",
          "name": "",
          "type": "uint256"
        }
      ],
      "stateMutability": "view",
      "type": "function",
      "constant": true
    },
    {
      "inputs": [],
      "name": "deadline",
      "outputs": [
        {
          "internalType": "uint256",
          "name": "",
          "type": "uint256"
        }
      ],
      "stateMutability": "view",
      "type": "function",
      "constant": true
    },
    {
      "inputs": [],
      "name": "manager",
      "outputs": [
        {
          "internalType": "address",
          "name": "",
          "type": "address"
        }
      ],
      "stateMutability": "view",
      "type": "function",
      "constant": true
    },
    {
      "inputs": [],
      "name": "noOfContributor",
      "outputs": [
        {
          "internalType": "uint256",
          "name": "",
          "type": "uint256"
        }
      ],
      "stateMutability": "view",
      "type": "function",
      "constant": true
    },
    {
      "inputs": [],
      "name": "numRequests",
      "outputs": [
        {
          "internalType": "uint256",
          "name": "",
          "type": "uint256"
        }
      ],
      "stateMutability": "view",
      "type": "function",
      "constant": true
    },
    {
      "inputs": [],
      "name": "raisedAmount",
      "outputs": [
        {
          "internalType": "uint256",
          "name": "",
          "type": "uint256"
        }
      ],
      "stateMutability": "view",
      "type": "function",
      "constant": true
    },
    {
      "inputs": [
        {
          "internalType": "uint256",
          "name": "",
          "type": "uint256"
        }
      ],
      "name": "requests",
      "outputs": [
        {
          "internalType": "string",
          "name": "description",
          "type": "string"
        },
        {
          "internalType": "address payable",
          "name": "recipient",
          "type": "address"
        },
        {
          "internalType": "uint256",
          "name": "value",
          "type": "uint256"
        },
        {
          "internalType": "bool",
          "name": "completed",
          "type": "bool"
        },
        {
          "internalType": "uint256",
          "name": "noOfVoters",
          "type": "uint256"
        }
      ],
      "stateMutability": "view",
      "type": "function",
      "constant": true
    },
    {
      "inputs": [],
      "name": "target",
      "outputs": [
        {
          "internalType": "uint256",
          "name": "",
          "type": "uint256"
        }
      ],
      "stateMutability": "view",
      "type": "function",
      "constant": true
    },
    {
      "inputs": [],
      "name": "sendEth",
      "outputs": [],
      "stateMutability": "payable",
      "type": "function",
      "payable": true
    },
    {
      "inputs": [],
      "name": "getContractBalance",
      "outputs": [
        {
          "internalType": "uint256",
          "name": "",
          "type": "uint256"
        }
      ],
      "stateMutability": "view",
      "type": "function",
      "constant": true
    },
    {
      "inputs": [],
      "name": "refund",
      "outputs": [],
      "stateMutability": "payable",
      "type": "function",
      "payable": true
    },
    {
      "inputs": [
        {
          "internalType": "string",
          "name": "_Description",
          "type": "string"
        },
        {
          "internalType": "address payable",
          "name": "_recipient",
          "type": "address"
        },
        {
          "internalType": "uint256",
          "name": "_value",
          "type": "uint256"
        }
      ],
      "name": "CreateRequest",
      "outputs": [],
      "stateMutability": "nonpayable",
      "type": "function"
    },
    {
      "inputs": [
        {
          "internalType": "uint256",
          "name": "_requestNo",
          "type": "uint256"
        }
      ],
      "name": "voteRequest",
      "outputs": [],
      "stateMutability": "nonpayable",
      "type": "function"
    },
    {
      "inputs": [
        {
          "internalType": "uint256",
          "name": "_requestNo",
          "type": "uint256"
        }
      ],
      "name": "makePayment",
      "outputs": [],
      "stateMutability": "nonpayable",
      "type": "function"
    }
  ],
  "bytecode": "0x60806040523480156200001157600080fd5b5060405162001bc238038062001bc28339818101604052810190620000379190620000e3565b8160048190555080426200004c919062000159565b600381905550606460028190555033600160006101000a81548173ffffffffffffffffffffffffffffffffffffffff021916908373ffffffffffffffffffffffffffffffffffffffff160217905550505062000194565b600080fd5b6000819050919050565b620000bd81620000a8565b8114620000c957600080fd5b50565b600081519050620000dd81620000b2565b92915050565b60008060408385031215620000fd57620000fc620000a3565b5b60006200010d85828601620000cc565b92505060206200012085828601620000cc565b9150509250929050565b7f4e487b7100000000000000000000000000000000000000000000000000000000600052601160045260246000fd5b60006200016682620000a8565b91506200017383620000a8565b92508282019050808211156200018e576200018d6200012a565b5b92915050565b611a1e80620001a46000396000f3fe6080604052600436106100e85760003560e01c8063590e1ae31161008a5780638c9ffd40116100595780638c9ffd40146102a65780639fb42b1f146102d1578063c59ee1dc146102fc578063d4b8399214610327576100e8565b8063590e1ae3146102055780636f9fb98a1461020f5780637099cdaf1461023a57806381d12c5814610265576100e8565b80633a88be74116100c65780633a88be741461015f578063481c6a75146101885780634cb6f4a5146101b35780635114cb52146101dc576100e8565b806306e99fef146100ed5780631f6d4942146100f757806329dcb0cf14610134575b600080fd5b6100f5610352565b005b34801561010357600080fd5b5061011e60048036038101906101199190610da1565b6104aa565b60405161012b9190610de7565b60405180910390f35b34801561014057600080fd5b506101496104c2565b6040516101569190610de7565b60405180910390f35b34801561016b57600080fd5b5061018660048036038101906101819190610fb2565b6104c8565b005b34801561019457600080fd5b5061019d610614565b6040516101aa9190611030565b60405180910390f35b3480156101bf57600080fd5b506101da60048036038101906101d5919061104b565b61063a565b005b3480156101e857600080fd5b5061020360048036038101906101fe919061104b565b610884565b005b61020d610a78565b005b34801561021b57600080fd5b50610224610c1e565b6040516102319190610de7565b60405180910390f35b34801561024657600080fd5b5061024f610c26565b60405161025c9190610de7565b60405180910390f35b34801561027157600080fd5b5061028c6004803603810190610287919061104b565b610c2c565b60405161029d959493929190611121565b60405180910390f35b3480156102b257600080fd5b506102bb610d17565b6040516102c89190610de7565b60405180910390f35b3480156102dd57600080fd5b506102e6610d1d565b6040516102f39190610de7565b60405180910390f35b34801561030857600080fd5b50610311610d23565b60405161031e9190610de7565b60405180910390f35b34801561033357600080fd5b5061033c610d29565b6040516103499190610de7565b60405180910390f35b6003544210610396576040517f08c379a000000000000000000000000000000000000000000000000000000000815260040161038d906111ed565b60405180910390fd5b6002543410156103db576040517f08c379a00000000000000000000000000000000000000000000000000000000081526004016103d290611259565b60405180910390fd5b60008060003373ffffffffffffffffffffffffffffffffffffffff1673ffffffffffffffffffffffffffffffffffffffff168152602001908152602001600020540361043a5760066000815480929190610434906112a8565b91905055505b346000803373ffffffffffffffffffffffffffffffffffffffff1673ffffffffffffffffffffffffffffffffffffffff168152602001908152602001600020600082825461048891906112f0565b9250508190555034600560008282546104a191906112f0565b92505081905550565b60006020528060005260406000206000915090505481565b60035481565b600160009054906101000a900473ffffffffffffffffffffffffffffffffffffffff1673ffffffffffffffffffffffffffffffffffffffff163373ffffffffffffffffffffffffffffffffffffffff1614610558576040517f08c379a000000000000000000000000000000000000000000000000000000000815260040161054f90611396565b60405180910390fd5b6000600760006008548152602001908152602001600020905060086000815480929190610584906112a8565b91905055508381600001908161059a91906115c2565b50828160010160006101000a81548173ffffffffffffffffffffffffffffffffffffffff021916908373ffffffffffffffffffffffffffffffffffffffff16021790555081816002018190555060008160030160006101000a81548160ff0219169083151502179055506000816004018190555050505050565b600160009054906101000a900473ffffffffffffffffffffffffffffffffffffffff1681565b60008060003373ffffffffffffffffffffffffffffffffffffffff1673ffffffffffffffffffffffffffffffffffffffff16815260200190815260200160002054116106bb576040517f08c379a00000000000000000000000000000000000000000000000000000000081526004016106b2906116e0565b60405180910390fd5b600073ffffffffffffffffffffffffffffffffffffffff166007600083815260200190815260200160002060010160009054906101000a900473ffffffffffffffffffffffffffffffffffffffff1673ffffffffffffffffffffffffffffffffffffffff1603610760576040517f08c379a00000000000000000000000000000000000000000000000000000000081526004016107579061174c565b60405180910390fd5b6000600760008381526020019081526020016000209050600015158160050160003373ffffffffffffffffffffffffffffffffffffffff1673ffffffffffffffffffffffffffffffffffffffff16815260200190815260200160002060009054906101000a900460ff1615151461080c576040517f08c379a0000000000000000000000000000000000000000000000000000000008152600401610803906117b8565b60405180910390fd5b60018160050160003373ffffffffffffffffffffffffffffffffffffffff1673ffffffffffffffffffffffffffffffffffffffff16815260200190815260200160002060006101000a81548160ff02191690831515021790555080600401600081548092919061087b906112a8565b91905055505050565b600160009054906101000a900473ffffffffffffffffffffffffffffffffffffffff1673ffffffffffffffffffffffffffffffffffffffff163373ffffffffffffffffffffffffffffffffffffffff1614610914576040517f08c379a000000000000000000000000000000000000000000000000000000000815260040161090b90611396565b60405180910390fd5b600454600554101561092557600080fd5b6000600760008381526020019081526020016000209050600015158160030160009054906101000a900460ff16151514610994576040517f08c379a000000000000000000000000000000000000000000000000000000000815260040161098b90611824565b60405180910390fd5b60026006546109a39190611873565b8160040154116109e8576040517f08c379a00000000000000000000000000000000000000000000000000000000081526004016109df906118f0565b60405180910390fd5b8060010160009054906101000a900473ffffffffffffffffffffffffffffffffffffffff1673ffffffffffffffffffffffffffffffffffffffff166108fc82600201549081150290604051600060405180830381858888f19350505050158015610a56573d6000803e3d6000fd5b5060018160030160006101000a81548160ff0219169083151502179055505050565b6003544211610abc576040517f08c379a0000000000000000000000000000000000000000000000000000000008152600401610ab39061195c565b60405180910390fd5b60045460055410610b02576040517f08c379a0000000000000000000000000000000000000000000000000000000008152600401610af9906119c8565b60405180910390fd5b60008060003373ffffffffffffffffffffffffffffffffffffffff1673ffffffffffffffffffffffffffffffffffffffff1681526020019081526020016000205411610b4d57600080fd5b60003390508073ffffffffffffffffffffffffffffffffffffffff166108fc6000803373ffffffffffffffffffffffffffffffffffffffff1673ffffffffffffffffffffffffffffffffffffffff168152602001908152602001600020549081150290604051600060405180830381858888f19350505050158015610bd6573d6000803e3d6000fd5b5060008060003373ffffffffffffffffffffffffffffffffffffffff1673ffffffffffffffffffffffffffffffffffffffff1681526020019081526020016000208190555050565b600047905090565b60025481565b6007602052806000526040600020600091509050806000018054610c4f906113e5565b80601f0160208091040260200160405190810160405280929190818152602001828054610c7b906113e5565b8015610cc85780601f10610c9d57610100808354040283529160200191610cc8565b820191906000526020600020905b815481529060010190602001808311610cab57829003601f168201915b5050505050908060010160009054906101000a900473ffffffffffffffffffffffffffffffffffffffff16908060020154908060030160009054906101000a900460ff16908060040154905085565b60065481565b60085481565b60055481565b60045481565b6000604051905090565b600080fd5b600080fd5b600073ffffffffffffffffffffffffffffffffffffffff82169050919050565b6000610d6e82610d43565b9050919050565b610d7e81610d63565b8114610d8957600080fd5b50565b600081359050610d9b81610d75565b92915050565b600060208284031215610db757610db6610d39565b5b6000610dc584828501610d8c565b91505092915050565b6000819050919050565b610de181610dce565b82525050565b6000602082019050610dfc6000830184610dd8565b92915050565b600080fd5b600080fd5b6000601f19601f8301169050919050565b7f4e487b7100000000000000000000000000000000000000000000000000000000600052604160045260246000fd5b610e5582610e0c565b810181811067ffffffffffffffff82111715610e7457610e73610e1d565b5b80604052505050565b6000610e87610d2f565b9050610e938282610e4c565b919050565b600067ffffffffffffffff821115610eb357610eb2610e1d565b5b610ebc82610e0c565b9050602081019050919050565b82818337600083830152505050565b6000610eeb610ee684610e98565b610e7d565b905082815260208101848484011115610f0757610f06610e07565b5b610f12848285610ec9565b509392505050565b600082601f830112610f2f57610f2e610e02565b5b8135610f3f848260208601610ed8565b91505092915050565b6000610f5382610d43565b9050919050565b610f6381610f48565b8114610f6e57600080fd5b50565b600081359050610f8081610f5a565b92915050565b610f8f81610dce565b8114610f9a57600080fd5b50565b600081359050610fac81610f86565b92915050565b600080600060608486031215610fcb57610fca610d39565b5b600084013567ffffffffffffffff811115610fe957610fe8610d3e565b5b610ff586828701610f1a565b935050602061100686828701610f71565b925050604061101786828701610f9d565b9150509250925092565b61102a81610d63565b82525050565b60006020820190506110456000830184611021565b92915050565b60006020828403121561106157611060610d39565b5b600061106f84828501610f9d565b91505092915050565b600081519050919050565b600082825260208201905092915050565b60005b838110156110b2578082015181840152602081019050611097565b60008484015250505050565b60006110c982611078565b6110d38185611083565b93506110e3818560208601611094565b6110ec81610e0c565b840191505092915050565b61110081610f48565b82525050565b60008115159050919050565b61111b81611106565b82525050565b600060a082019050818103600083015261113b81886110be565b905061114a60208301876110f7565b6111576040830186610dd8565b6111646060830185611112565b6111716080830184610dd8565b9695505050505050565b7f5468697320436f6e747269627574696f6e20697320416c7265616479204f766560008201527f7200000000000000000000000000000000000000000000000000000000000000602082015250565b60006111d7602183611083565b91506111e28261117b565b604082019050919050565b60006020820190508181036000830152611206816111ca565b9050919050565b7f4d696e696d756d20436f6e747269627574696f6e206973206e6f74206d657400600082015250565b6000611243601f83611083565b915061124e8261120d565b602082019050919050565b6000602082019050818103600083015261127281611236565b9050919050565b7f4e487b7100000000000000000000000000000000000000000000000000000000600052601160045260246000fd5b60006112b382610dce565b91507fffffffffffffffffffffffffffffffffffffffffffffffffffffffffffffffff82036112e5576112e4611279565b5b600182019050919050565b60006112fb82610dce565b915061130683610dce565b925082820190508082111561131e5761131d611279565b5b92915050565b7f4f6e6c79204d616e616765722043616e2043616c6c20746869732066756e637460008201527f696f6e0000000000000000000000000000000000000000000000000000000000602082015250565b6000611380602383611083565b915061138b82611324565b604082019050919050565b600060208201905081810360008301526113af81611373565b9050919050565b7f4e487b7100000000000000000000000000000000000000000000000000000000600052602260045260246000fd5b600060028204905060018216806113fd57607f821691505b6020821081036114105761140f6113b6565b5b50919050565b60008190508160005260206000209050919050565b60006020601f8301049050919050565b600082821b905092915050565b6000600883026114787fffffffffffffffffffffffffffffffffffffffffffffffffffffffffffffffff8261143b565b611482868361143b565b95508019841693508086168417925050509392505050565b6000819050919050565b60006114bf6114ba6114b584610dce565b61149a565b610dce565b9050919050565b6000819050919050565b6114d9836114a4565b6114ed6114e5826114c6565b848454611448565b825550505050565b600090565b6115026114f5565b61150d8184846114d0565b505050565b5b81811015611531576115266000826114fa565b600181019050611513565b5050565b601f8211156115765761154781611416565b6115508461142b565b8101602085101561155f578190505b61157361156b8561142b565b830182611512565b50505b505050565b600082821c905092915050565b60006115996000198460080261157b565b1980831691505092915050565b60006115b28383611588565b9150826002028217905092915050565b6115cb82611078565b67ffffffffffffffff8111156115e4576115e3610e1d565b5b6115ee82546113e5565b6115f9828285611535565b600060209050601f83116001811461162c576000841561161a578287015190505b61162485826115a6565b86555061168c565b601f19841661163a86611416565b60005b828110156116625784890151825560018201915060208501945060208101905061163d565b8683101561167f578489015161167b601f891682611588565b8355505b6001600288020188555050505b505050505050565b7f596f75206d75737420626520636f6e7472696275746f72000000000000000000600082015250565b60006116ca601783611083565b91506116d582611694565b602082019050919050565b600060208201905081810360008301526116f9816116bd565b9050919050565b7f546869732052657175657374206e6f7420657869737400000000000000000000600082015250565b6000611736601683611083565b915061174182611700565b602082019050919050565b6000602082019050818103600083015261176581611729565b9050919050565b7f596f75204861766520616c726561647920766f74656400000000000000000000600082015250565b60006117a2601683611083565b91506117ad8261176c565b602082019050919050565b600060208201905081810360008301526117d181611795565b9050919050565b7f54686973205265717565737420686173206265656e20636f6d706c6574656400600082015250565b600061180e601f83611083565b9150611819826117d8565b602082019050919050565b6000602082019050818103600083015261183d81611801565b9050919050565b7f4e487b7100000000000000000000000000000000000000000000000000000000600052601260045260246000fd5b600061187e82610dce565b915061188983610dce565b92508261189957611898611844565b5b828204905092915050565b7f6d616a6f7269747920646f6573206e6f7420737570706f727400000000000000600082015250565b60006118da601983611083565b91506118e5826118a4565b602082019050919050565b60006020820190508181036000830152611909816118cd565b9050919050565b7f5468697320436f6e747269627574696f6e206973204e6f74204f766572000000600082015250565b6000611946601d83611083565b915061195182611910565b602082019050919050565b6000602082019050818103600083015261197581611939565b9050919050565b7f5461726765742069732061726368697665640000000000000000000000000000600082015250565b60006119b2601283611083565b91506119bd8261197c565b602082019050919050565b600060208201905081810360008301526119e1816119a5565b905091905056fea2646970667358221220502330575f2bfb5009bc8de5657cc16e32ba507ac85563e9cf44f36bba84efc964736f6c63430008120033",
  "immutableReferences": {},
  "source": "//SPDX-License-Identifier:UNLLICENSED\r\n\r\npragma solidity >=0.5.0 < 0.9.0;\r\n\r\ncontract CrowdFunding{\r\n    mapping(address=>uint) public contributors;\r\n    address public manager;\r\n    uint public MinimumContribution;\r\n    uint public deadline;\r\n    uint public target;\r\n    uint public raisedAmount;\r\n    uint public noOfContributor;\r\n\r\n\r\n\r\n    struct Request{\r\n        string description;\r\n        address payable recipient;\r\n        uint value;\r\n        bool completed;\r\n        uint noOfVoters;\r\n        mapping(address=>bool) voters;\r\n    }\r\n\r\n    mapping(uint=>Request) public requests;\r\n    uint public numRequests;\r\n\r\n\r\n\r\n\r\n\r\n\r\n    constructor(uint _target,uint _deadline){\r\n        target = _target;\r\n        deadline = block.timestamp+_deadline;\r\n        MinimumContribution = 100 wei;\r\n        manager=msg.sender;\r\n\r\n    }\r\n\r\n\r\n    function sendEth() public payable{\r\n        require(block.timestamp<deadline,\"This Contribution is Already Over\");\r\n        require(msg.value>=MinimumContribution,\"Minimum Contribution is not met\");\r\n        if(contributors[msg.sender]==0){\r\n            noOfContributor++;\r\n        }\r\n        contributors[msg.sender]+=msg.value;\r\n        raisedAmount+=msg.value;\r\n\r\n\r\n    }\r\n\r\n    function getContractBalance() public view returns(uint){\r\n        return address(this).balance;\r\n    }\r\n\r\n    function refund() public payable{\r\n        require(block.timestamp>deadline,\"This Contribution is Not Over\");\r\n        require(raisedAmount<target,\"Target is archived\");\r\n        require(contributors[msg.sender]>0);\r\n        address payable user = payable(msg.sender);\r\n        user.transfer(contributors[msg.sender]);\r\n        contributors[msg.sender]=0;\r\n\r\n    }\r\n\r\n    modifier onlyManager(){\r\n        require(msg.sender==manager,\"Only Manager Can Call this function\");\r\n        _;    }\r\n\r\n\r\n    function CreateRequest(string memory _Description, address payable _recipient,uint _value) public onlyManager{\r\n        Request storage newRequest =requests[numRequests];\r\n        numRequests++;\r\n        newRequest.description=_Description;\r\n        newRequest.recipient=_recipient;\r\n        newRequest.value=_value;\r\n        newRequest.completed=false;\r\n        newRequest.noOfVoters=0;\r\n    }\r\n\r\n\r\n    function voteRequest(uint _requestNo) public{\r\n        require(contributors[msg.sender]>0,\"You must be contributor\");\r\n        require(requests[_requestNo].recipient!=0x0000000000000000000000000000000000000000,\"This Request not exist\");\r\n        Request storage thisRequest=requests[_requestNo];\r\n        require(thisRequest.voters[msg.sender]==false,\"You Have already voted\");\r\n        thisRequest.voters[msg.sender]=true;\r\n        thisRequest.noOfVoters++;\r\n    }\r\n\r\n    function makePayment(uint _requestNo) public onlyManager{\r\n        require(raisedAmount>=target);\r\n        Request storage thisRequest=requests[_requestNo];\r\n        require(thisRequest.completed==false,\"This Request has been completed\");\r\n        require(thisRequest.noOfVoters>noOfContributor/2,\"majority does not support\");\r\n        thisRequest.recipient.transfer(thisRequest.value);\r\n        thisRequest.completed=true;\r\n\r\n    }\r\n\r\n    \r\n\r\n\r\n}",
  "sourcePath": "D:\\Blockchain Project\\CwordFunding\\crowndfunding\\contracts\\crowndfunding.sol",
  "compiler": {
    "name": "solc",
    "version": "0.8.18+commit.87f61d96.Emscripten.clang"
  },
  "schemaVersion": "3.4.12",
  "updatedAt": "2023-05-24T08:40:49.477Z",
  "networkType": "ethereum",
  "devdoc": {
    "kind": "dev",
    "methods": {},
    "version": 1
  },
  "userdoc": {
    "kind": "user",
    "methods": {},
    "version": 1
  }
}